:10000000D7C100000C946D0D0C942A33E3C100009D
:10001000E1C10000DFC10000DDC10000DBC1000064
:10002000D9C10000D7C10000D5C10000D3C1000074
:100030000C94BE28CFC10000CDC10000CBC1000090
:100040000C94ED2AC7C100000C9485240C9448241C
:10005000C1C10000BFC10000BDC10000BBC10000A4
:10006000B9C10000B7C10000B5C10000B3C10000B4
:10007000B1C10000AFC10000ADC10000ABC10000C4
:10008000A9C10000A7C10000A5C100009E04BF0CCB
:10009000BF0CA804B504C204CF04BF0CD304BF0C2A
:1000A000E104BF0CEB04F504FF04BF0CBF0CBF0C54
:1000B0000E051B05280518201B201E2021202420AA
:1000C00027202A202D20302033203620BC24BE2497
:1000D000F724F724F724F724F724F724F724F72448
:1000E000F724F724C424C624C824CA24CC24CE244C
:1000F000D024D224F724D624D824DA24DC24DE2405
:10010000E024F724E2246F26752678267B267F26B6
:1001100087268F262027202720279C269F26A82653
:10012000B126202720272027202720272027BD266B
:10013000C726D326DB26DE26E726F026F62620274E
:100140002027FF2608271227084AD73B3BCE016EFF
:1001500084BCBFFDC12F3D6C74319ABD56833DDA1E
:100160003D00C77F11BED9E4BB4C3E916BAAAABE2D
:10017000000000803F05A84CCDB2D44EB93836A956
:10018000020C50B9918688083CA6AAAA2ABE000093
:1001900000803F007C413A007C4F763A007C574318
:1001A0004F3A007C506E3A007C46533A007C4266DF
:1001B0003A007C57506F733A007C4D506F733A0091
:1001C000536C65657000446F6F723A0043686563F5
:1001D0006B00416C61726D00486F6D65004A6F671E
:1001E00000486F6C643A0052756E0049646C65009B
:1001F0005B4F50543A005B5645523A312E31682ECF
:1002000032303139303832353A00244E00204D003A
:1002100020470020530020460020540033382E0091
:100220005B47433A47005B544C4F3A005B473932D7
:100230003A003330003238005B47005B5052423A9C
:10024000005B484C503A24242024232024472024B7
:100250004920244E2024783D76616C20244E783D40
:100260006C696E6520244A3D6C696E652024534C90
:1002700050202443202458202448207E2021203F41
:10028000206374726C2D785D0D0A000D0A4772624E
:100290006C20312E3168205B27242720666F722066
:1002A00068656C705D0D0A00536C656570696E67FA
:1002B00000526573746F72696E67207370696E6443
:1002C0006C6500526573746F72696E672064656651
:1002D00061756C74730050676D20456E64004368EF
:1002E00065636B204C696D69747300436865636B6B
:1002F00020446F6F720044697361626C65640045ED
:100300006E61626C65640043617574696F6E3A205A
:10031000556E6C6F636B656400272448277C272427
:10032000582720746F20756E6C6F636B0052657375
:10033000657420746F20636F6E74696E7565005B01
:100340004D53473A00414C41524D3A000D0A006569
:1003500072726F723A006F6B0D0A0000007A4300F0
:10036000007A4300007A430000FA430000FA430099
:1003700000FA4300A00C4700A00C4700A00C470067
:100380000048C3000048C3000048C30A0000190128
:100390000AD7233C6F12033B00007A4400000000A0
:1003A00000000000C8410000FA43FA000000803F4E
:1003B00011241FBECFEFD0E1DEBFCDBF27E0A0E00C
:1003C000B1E001C01D92A136B207E1F70E94A50F6E
:1003D0000C94503A15CEC39B02C080E4089580E08F
:1003E0000895C3980895BB9AFCCF9091F50591119B
:1003F00007C086FF02C0C39A01C0C3981092FF05D0
:100400000895CF939091F405923031F0C82F0E9457
:100410009D1F8C2FCF91E9CFCF910895E199FECF09
:100420009FBB8EBB81E08CBB8DB30895F894E1999E
:10043000FECF9FBB8EBB81E08CBB8DB38627962FF2
:10044000982339F06F3F19F06DBB84E006C084E15A
:1004500004C0882321F06DBB84E28CBBE19A7894C0
:1004600008959F92AF92BF92CF92DF92EF92FF9248
:100470000F931F93CF93DF935C018A017B01E40EFE
:10048000F51EEB01912C6C01C61AD70ACE018C0D1A
:100490009D1DCE15DF0581F0911008C0292D990C06
:1004A000330B232F221F2227221F01C021E0699135
:1004B000922E960EBBDFEACF692DC501800F911FEA
:1004C000DF91CF911F910F91FF90EF90DF90CF9030
:1004D000BF90AF909F90AACF9F92AF92BF92CF92C2
:1004E000DF92EF92FF920F931F93CF93DF935B0105
:1004F0008A017C01E40EF51EEC01912C6B01C81AF7
:10050000D90AC6018C0F9D1FCE15DF0581F086DF4D
:10051000911008C0292D990C330B232F221F22275D
:10052000221F01C021E0982E920E8993EACFC501C7
:10053000800F911F73DF21E030E0981611F020E06A
:1005400030E0C901DF91CF911F910F91FF90EF90A3
:10055000DF90CF90BF90AF909F90089580E4E9E73F
:10056000F5E0DF011D928A95E9F76DE975E080E01D
:100570000E94D425811103C087E00C94EC1F0895DC
:1005800064E176E081E995E00C94A5332F923F92E7
:100590004F925F926F927F928F929F92AF92BF9293
:1005A000CF92DF92EF92FF920F931F93CF93DF933F
:1005B000CDB7DEB7AC970FB6F894DEBF0FBECDBF98
:1005C0009F8F8E8F8AE3E9EBF5E0DF011D928A951C
:1005D000E9F78BE0E9E7F5E0AAEBB5E001900D92D1
:1005E0008A95E1F7EE8DFF8D8081843211F00C94B5
:1005F000DD0C81E08093BA051092BB0583E08A8F01
:10060000F1E0FC8F212C312C1DA21CA218A21B8E04
:100610001D8EEE24E394F12C01E07AE0472E512C5C
:10062000E1E66E2EE3E07E2E8A8DEE8DFF8DE80FE3
:10063000F11DC080CC2009F438C29FEB9C0D9A318B
:1006400010F00C94AF0C8F5F8A8FAE014A5E5F4F43
:10065000BE01665E7F4F8E8D9F8D0E94D8138823CA
:1006600011F40C94B10C8E889F88A88CB98CC501AC
:10067000B4010E94C0390E942837162F70E080E034
:1006800090E00E9456379B01AC01C501B4010E9465
:10069000DA3520E030E048EC52E40E94F2380E9463
:1006A00055390E942837CB0127E4C21629F03DE4D2
:1006B000C31609F4E9C034C1183209F4C5C020F5E5
:1006C000143168F4113108F08AC0143009F452C0B2
:1006D00008F464C01A3009F445C00C94BF0C1C31F6
:1006E00009F440C050F4163110F00C94BF0C25E111
:1006F000211B2093BC0526E0ACC01E3199F11632B7
:1007000009F44CC00C94BF0C1D3309F497C0A8F435
:10071000153381F140F41B3209F47AC0113309F426
:1007200077C00C94BF0C1C3310F00C94BF0C6AEC17
:10073000610F6093C00529E08CC01C3538F41A3570
:1007400008F053C0103581F10C94BF0C1C3551F0EA
:100750001F3510F00C94BF0C2EE5211B2093BB0518
:1007600025E077C0009731F44D8D41110C94B30C06
:10077000A1E0AD8F1093B905212F2D7F2C3119F0F9
:100780001C3509F063C0009721F00A9711F00C9412
:10079000BF0C610F6093B90520E060C0BD8DB11141
:1007A0000C94B30CE2E0ED8F1093BA05163209F009
:1007B0004FC08431910559F08E31910541F0883256
:1007C000910529F08233910511F00C94BF0CB20110
:1007D0000E94EB3966576093BA0521E03FC06FEE87
:1007E000610F6093BE0522E034C0892B31F466EAC4
:1007F000610F6093BD0523E031C06A30710511F0CF
:100800000C94BF0C1A3511F40C94BF0C24E026C0D4
:10081000FD8DF1110C94B30C113331F41092BF051E
:1008200028E033E03D8F1AC00A9711F00C94BF0CFA
:100830000093BF0528E043E04D8F10C0892B11F0D5
:100840000C94BF0C2AE00AC027E003C020E001C0DE
:1008500021E0892B19F087E10C94E10CC70102C05B
:10086000880F991F2A95E2F72CA13DA1282339234F
:10087000232B19F085E10C94E10CACA1BDA1A82BB0
:10088000B92BBDA3ACA3D0CE892B29F7163018F411
:10089000133058F016C0183010F40C94BF0C1A30F6
:1008A000F0F01E3159F00C94BF0C112319F01130E7
:1008B00011F104C0B3E0B093C1051DC01093C10590
:1008C0001AC0143021F0153031F080E101C080E20F
:1008D0008093C30502C01092C3058CE00DC019308F
:1008E00031F08091C20580648093C20502C01092ED
:1008F000C2058DE001C08BE0F70102C0EE0FFF1FC3
:100900008A95E2F72CA13DA12E233F23232B09F04A
:10091000B1CF2CA13DA12E2B3F2B3DA32CA384CEE8
:100920008C2D90E0FC01E654F109E531F10510F061
:100930000C94BF0CEA5BFF4F0C94213A8092C505E2
:100940009092C605A092C705B092C80580E08CC001
:100950008092C9059092CA05A092CB05B092CC05B1
:1009600038A1316038A381E07FC08092CD0590929C
:10097000CE05A092CF05B092D00548A1426048A311
:1009800082E072C08092D1059092D205A092D305E8
:10099000B092D40588A1846088A383E065C01093D9
:1009A000D50584E061C0C501B4010E94233760937E
:1009B000D6057093D7058093D8059093D90585E027
:1009C00053C08092DA059092DB05A092DC05B092CC
:1009D000DD0586E049C08092DE059092DF05A09299
:1009E000E005B092E10587E03FC08092E205909279
:1009F000E305A092E405B092E50588E035C020E06B
:100A000030E04FE753E4C501B4010E94B73818162F
:100A10000CF4ABC71093E60589E026C08092E70589
:100A20009092E805A092E905B092EA059B8D91604D
:100A30009B8F8AE019C08092EB059092EC05A09202
:100A4000ED05B092EE05AB8DA260AB8F8BE00CC0D4
:100A50008092EF059092F005A092F105B092F20518
:100A6000BB8DB460BB8F8CE06701082E02C0CC0C3C
:100A7000DD1C0A94E2F791012C213D21232B09F082
:100A800076C7F30102C0F595E7958A95E2F7E0FF96
:100A900009C020E030E0A901C501B4010E94B436CC
:100AA00087FD67C72C283D28BFCDFB8DFF2329F08C
:100AB0002D8D211102C032E03D8F25FE0EC08091A8
:100AC000D6059091D705A091D805B091D905813868
:100AD0009649A849B1050CF04EC78C8D882319F0B2
:100AE00020FE53C716C08091BB05813061F49D8DF7
:100AF0009230D1F58091BA058035B1F18823A1F10A
:100B000020FE43C731C080917A0581112DC020FE9F
:100B10001BC08091BC05813039F523E333E34BECF6
:100B200051E46091C5057091C6058091C70590910B
:100B3000C8050E94F2386093C5057093C60580937E
:100B4000C7059093C80510C08091880590918905CC
:100B5000A0918A05B0918B058093C5059093C60539
:100B6000A093C705B093C80530FC10C080918405E0
:100B700090918505A0918605B09187058093E20547
:100B80009093E305A093E405B093E5058091B90542
:100B9000843031F426FC02C08CE113C7E89426F8B7
:100BA0008091BE05882371F0813031F4A1E0ACA7BB
:100BB00019A6B2E0B8A70BC01CA6E2E0E9A7F1E0D5
:100BC000F8A705C022E02CA731E039A718A680912C
:100BD000BC05813021F04D8D4330B1F52DC059EB6E
:100BE000E52E55E0F52E00E010E08B8DC82ED12CBF
:100BF000C601002E02C0959587950A94E2F780FF02
:100C000012C023E333E34BEC51E4D7019E966D9180
:100C10007D918D919C91D1970E94F238F70166A742
:100C200077A780AB91AB0F5F1F4FF4E0EF0EF11C85
:100C300003301105E9F6CFCF8091BF05813021F453
:100C40002B8D243009F099C68CE0EDE9F5E0DE014A
:100C5000119601900D928A95E1F78CA19DA191FDCD
:100C600009C09091B9059E8F9A30B9F09C3509F46E
:100C7000AAC011C18091C005873010F08DE1A1C6D6
:100C800090917F05891769F3BE016F5F7F4F0E94C6
:100C9000D425882309F485C6E4CFAB8DA11102C009
:100CA0008AE18FC6C10180759927892B09F474CF19
:100CB0006091DA057091DB058091DC059091DD058E
:100CC0000E94C0390E9428376730C0F68091D50550
:100CD000843129F0823009F052C627FC50C6BFEAA1
:100CE0002B22662319F061506E8F03C0E091C0057E
:100CF000EE8F69EC75E08E8D0E94D425882309F46F
:100D000050C6B090D5054090B5055090B60560909E
:100D1000B7057090B80509EB15E049E7C42E45E02A
:100D2000D42EE12CF12CFB8D8F2E912CC4010E2C96
:100D300002C0959587950A94E2F780FF36C024E1BA
:100D4000B2122AC0D601D0962D913D914D915C9161
:100D5000D39758966D917D918D919C915B970E9450
:100D6000DA35F80126A537A540A951A90E94DA3540
:100D7000D80150966D937D938D939C935397B2E0D9
:100D8000EB1213C0A30192010E94DA35F801608BC7
:100D9000718B828B938B09C0F80186A597A5A0A9BA
:100DA000B1A9808B918BA28BB38BFFEFEF1AFF0A57
:100DB0000C5F1F4F24E0C20ED11C33E0E316F10498
:100DC00009F0B4CF35C14B8D442309F469CF40906D
:100DD000B5055090B6056090B7057090B80529EB41
:100DE000E22E25E0F22E39E7A32E35E0B32E8E0158
:100DF0000F5F1F4FC12CD12C842E912CC4010C2CC1
:100E000002C0959587950A94E2F780FF29C0D80122
:100E10002D913D914D915C91F501608D718D828D8B
:100E2000938D0E94DA35D7019E962D913D914D917B
:100E30005C91D1970E94DA35F70166A777A780AB5E
:100E400091ABF2E0CF1216C0A30192010E94DA35F5
:100E5000D7019E966D937D938D939C93D1970AC0F5
:100E6000F50180A991A9A2A9B3A9F70186A797A71F
:100E7000A0ABB1ABFFEFCF1ADF0A24E0E20EF11C0A
:100E800034E0A30EB11C0C5F1F4F43E0C416D10425
:100E900009F0B4CFCCC08D8D833071F49E8D9E311E
:100EA00009F48FC0953309F4BDC09C3109F0BFC06F
:100EB00069EC75E086E088C0AB8DAA2379F3B09128
:100EC000BD05BEA34090B5055090B6056090B7052E
:100ED0007090B80599E7C92E95E0D92E09EB15E079
:100EE000FE0131964F01E12CF12CAA2EB12CC50147
:100EF0000E2C02C0959587950A94E2F780FD0BC0F1
:100F0000F601808D918DA28DB38DF80186A797A7EC
:100F1000A0ABB1AB45C0FE8DF53309F441C02EA1A5
:100F200021112BC0D601D0962D913D914D915C9110
:100F3000D397F40160817181828193810E94DB35B6
:100F4000D8019E962D913D914D915C91D1970E9433
:100F5000DB35F80166A777A780AB91ABF2E0EF1223
:100F60001FC0A30192010E94DB35D8019E966D93AC
:100F70007D938D939C93D19713C0F601208D318D75
:100F8000428D538DD8019E966D917D918D919C914E
:100F9000D1970E94DB35F80166A777A780AB91ABAC
:100FA000FFEFEF1AFF0A24E0C20ED11C0C5F1F4FA7
:100FB00034E0830E911C43E0E416F10409F097CF6E
:100FC0006DCF69EC75E087E00E94D425882309F491
:100FD000E8C48B8D811103C01E8E1D8E29C0A9E728
:100FE000B5E0E9EBF5E080E090E04B8D242F30E0B8
:100FF000A901082E02C0559547950A94E2F740FDD5
:101000000AC058964D915D916D917C915B97408B94
:10101000518B628B738B01961496349683309105B5
:1010200039F705C08091BA05823008F0AAC41E8E37
:101030001091BA05103521F48B8D8111A4C43BC2E7
:101040009D8D923009F037C2111104C0AB8DA111F2
:1010500032C228C020E030E0A9016091C50570913E
:10106000C6058091C7059091C8050E94B4368823B3
:1010700009F48BC41C3809F409C240F41230A1F001
:101080001330A9F0113009F016C209C01E3809F456
:10109000FDC108F4F8C11F3809F4F5C10CC2BB8DBD
:1010A000B11109C21D8E07C2EC8DE460EC8FFB8D7F
:1010B000FF2309F4F5CD38A5232F30E03FA32EA35D
:1010C00099A5892F90E09BA78AA781E090E08C01E9
:1010D00008A402C0000F111F0A94E2F709A402C07D
:1010E000880F991F0A94E2F7082B192B8F2F90E095
:1010F00080239123892B09F44AC4F901EE0FFF1FC5
:10110000EE0FFF1FE754FA4FD901AA0FBB1FAA0F1A
:10111000BB1FAF56BA4F2D913D914D915C9166A585
:1011200077A580A991A90E94DA356B017C01EAA517
:10113000FBA5EE0FFF1FEE0FFF1FE754FA4FAAA506
:10114000BBA5AA0FBB1FAA0FBB1FAF56BA4F2D914D
:101150003D914D915C9166A577A580A991A90E94CA
:10116000DA352B013C0127FEE2C0E89427F84CE079
:1011700050E067EE75E081E995E00E94433A892BE3
:1011800011F481E21EC48091BC058130B1F423E3E7
:1011900033E34BEC51E46091DE057091DF05809103
:1011A000E0059091E1050E94F2386093DE057093AE
:1011B000DF058093E0059093E1058090DE05909037
:1011C000DF05A090E005B090E10520E030E040E8C8
:1011D00050E4C501B4010E94F238A50194010E94B7
:1011E000F2384B015C01A7019601C701B6010E94CC
:1011F000F2389B01AC01C501B4010E94DA354B0104
:101200005C01A3019201C301B2010E94F2389B016B
:10121000AC01C501B4010E94DA354B015C0120E04C
:1012200030E0A9010E94B43687FDB3C3C501B40103
:101230000E947F394B015C01A3019201C701B601F5
:101240000E94C1149B01AC01C501B40190580E94D9
:10125000BB364B015C018091BA05833021F4B7FAAB
:10126000B094B7F8B0948091DE059091DF05A0911D
:10127000E005B091E10588A399A3AAA3BBA320E050
:1012800030E0A901BC01CD010E94B43687FF11C036
:10129000B7FAB094B7F8B09488A199A1AAA1BBA15C
:1012A000B0588093DE059093DF05A093E005B093DE
:1012B000E1050EA11FA1000F111F000F111F075301
:1012C0001A4FA3019201C501B4010E94F2389B019B
:1012D000AC01C701B6010E94DA3520E030E040E001
:1012E0005FE30E94F238D8016D937D938D939C93B8
:1012F00013970AA51BA5000F111F000F111F0753FD
:101300001A4FA7019601C501B4010E94F238A3014A
:1013100092010E94DB3520E030E040E05FE30E9474
:10132000F238F8016083718382839383C4C0F8A18B
:101330008F2E912C08211921012B09F42CC321EFA8
:1013400022228091BC05813009F456C00AA51BA554
:10135000000F111F000F111F07531A4FD8012D91B5
:101360003D914D915C91C301B2010E94DA352B0190
:101370003C018EA19FA1880F991F880F991FFC0126
:10138000E753FA4F5F012081318142815381C701C8
:10139000B6010E94DA35A30192010E94C1146B01CB
:1013A0007C01D8012D913D914D915C91F5016081B9
:1013B0007181828193810E94C1144B015C01609311
:1013C000DE057093DF058093E0059093E1059B01B6
:1013D000AC01C701B6010E94DA356B017C01E894CB
:1013E000F7F82AE037ED43EA5BE3C701B6010E9454
:1013F000B73818165CF15FC089EBA82E85E0B82ECF
:1014000000E010E0C401002E02C0959587950A9473
:10141000E2F780FF12C023E333E34BEC51E4D50144
:1014200050966D917D918D919C9153970E94F238C9
:10143000F501608B718B828B938B0F5F1F4FF4E0F4
:10144000AF0EB11C03301105E9F680CF20E030E08B
:1014500040E05FE3C701B6010E94B73818160CF4EC
:1014600090CE2FE632E143E85AE3C501B4010E9471
:10147000F2389B01AC01C701B6010E94B7381816BB
:101480000CF47FCE18C02C8D20612C8F1E5812308A
:1014900018F43C8D38603C8F4B8D442309F400CC0C
:1014A0004CE050E067EE75E081E995E00E94433A38
:1014B000892B09F466CE2C8D21708C8D80FF03C0A2
:1014C000C1018E7D03C0C1018E7D9C7FAD8DA111B8
:1014D000937E892B09F061C23E01BDE06B0E711C49
:1014E00089E0F30111928A95E9F7222371F18CA129
:1014F0009DA1867B892B09F052C28091B905853365
:1015000011F081114CC28091840590918505A091C4
:101510008605B0918705898B9A8BAB8BBC8B90919C
:10152000820580918105892B8D8B69EB75E0C30164
:1015300061D2811146C28CE0E7EEF5E0A1E9B5E0A9
:1015400001900D928A95E1F708C2809151071091A0
:10155000820581FF26C08091BA058150833018F042
:10156000FC8DF064FC8F2B8D222339F03D8D3230C1
:1015700021F44C8D40684C8F14C0103191F480914F
:10158000790581509C8D9074833030F4992349F013
:101590008C8D80628C8F05C0911103C09C8D9062F0
:1015A0009C8F8091D6059091D705A091D805B091D8
:1015B000D90580938D0590938E05A0938F05B093E8
:1015C00090058091BB0580937A05882311F088E00F
:1015D0008D8B8091C5059091C605A091C705B091EE
:1015E000C8058093880590938905A0938A05B093D8
:1015F0008B058D879E87AF87B88BC090E205D09012
:10160000E305E090E405F090E505A70196016091FF
:1016100084057091850580918605909187050E94CB
:10162000B4360C8D0074811103C0AC8DA5FF20C0B1
:10163000112371F0BC8DB7FD0BC0002321F040E0F9
:1016400050E0BA0102C0B701A601812F0E945528BF
:101650008091E2059091E305A091E405B091E50544
:101660008093840590938505A0938605B0938705A4
:1016700001110CC08091840590918505A09186058B
:10168000B0918705898B9A8BAB8BBC8B8091E605DB
:1016900080938C058091C30590918205981751F035
:1016A00049895A896B897C890E9455288091C30594
:1016B000809382059D8980918205892B8D8B8091F5
:1016C000C20590918105981731F00E940102809126
:1016D000C205809381059D8980918105892B8D8B21
:1016E0008091B905843049F46091DA057091DB0589
:1016F0008091DC059091DD05A5D78091BE05809392
:101700007D058091BC0580937B05ED8DE33071F5FF
:101710008091BF0580937E05811108C01092EF056E
:101720001092F0051092F1051092F205C090EF05AD
:10173000D090F005E090F105F090F205A701960138
:101740006091B5057091B6058091B7059091B80587
:101750000E94B436882351F0C092B505D092B605E8
:10176000E092B705F092B8050E9488338091C005D9
:1017700090917F05981769F080937F058CE0FE01BA
:101780003196ADE9B5E001900D928A95E1F70E949E
:1017900088338091BD0580937C058091B9058632A0
:1017A000E1F138F48C3109F18E31F9F08A3069F0C9
:1017B0004DC08C35C1F1863609F43FC0883209F03E
:1017C00045C061E975E087E02BC069EC75E08E8D5E
:1017D0000E94292580917F05FE8DF81337C08CE08B
:1017E000E9ECF5E0ADE9B5E023C08D8981608D8B32
:1017F0002D8D222321F0B30187EE95E0FED3B301B6
:1018000089EC95E0FAD38CE0E9ECF5E0A1E9B5E0EC
:1018100001900D928A95E1F719C061E975E086E0C3
:101820000E94292513C08CE0E7EEF5E0A9EAB5E0B7
:1018300001900D928A95E1F707C08CE0E9EAF5E0A6
:10184000DF011D928A95E9F70E9488338091BA05DD
:10185000809379058035D9F1BD8DB230C1F58130E5
:1018600029F0811108C08D8981608D8BB30187EECD
:1018700095E0C3D398C082508230D0F4E090DE056A
:10188000F090DF050091E0051091E105EC8DE2FBA1
:10189000332430F83F928CA4A9A4C8A429EC35E0E5
:1018A00041E955E0B30187EE95E0E4D30F907BC0AA
:1018B0008D8984608D8B4C8DB30187EE95E0EBD6DE
:1018C000882309F470C0813011F40E94C002809115
:1018D000C10580938005882309F473C00E949D1F71
:1018E000809180059091F405833041F4923099F114
:1018F00088E00E94F8330E94121E2DC081E0809380
:10190000790510927D0510927C0510927A0510924F
:101910007F05109282051092810584E68093FB0575
:101920008093FC058093FD05923091F06DE975E0A0
:1019300080E00E94D4258823A1F10E94883340E0F2
:1019400050E0BA0180E00E94302880E00E94F5015A
:1019500088E00E9408201092800580E032C081E07B
:1019600030C082E02EC088E12CC086E22AC089E126
:1019700028C084E026C08BE124C085E222C084E137
:1019800020C08EE11EC08FE11CC086E11AC080E23B
:1019900018C082E216C083E214C084E212C080E163
:1019A00010C087E00EC08CE0E7EEF5E0A1E9B5E0FD
:1019B00001900D928A95E1F78ACF1A8E1C8E0C94B5
:1019C0000203AC960FB6F894DEBF0FBECDBFDF9119
:1019D000CF911F910F91FF90EF90DF90CF90BF902C
:1019E000AF909F908F907F906F905F904F903F90BF
:1019F0002F9008950F931F93CF93DF938C01FB01DA
:101A000084859585A685B785F80180839183A28317
:101A1000B38380858460808780915107EB01AE9607
:101A200085FD08C0B801CE01E8D2C091F405C1110E
:101A300008C009C0CE010E94BF33882399F3CFE0CC
:101A40000DC0C0E00BC00E942017892BD1F380E2AB
:101A50008093F4050E94AF2B0E9472288C2FDF9197
:101A6000CF911F910F91089582B18F7182B983B187
:101A7000806E83B908950895EF92FF920F931F939C
:101A8000CF93DF93C1B1C07E8091510786FD02C024
:101A900080EEC827CC23C1F000E010E0D0E0EE24B7
:101AA000E394F12C802F0E9449278C2339F0C70141
:101AB000002E01C0880F0A94EAF7D82B0F5F1F4F42
:101AC0000330110579F701C0D0E08D2FDF91CF9160
:101AD0001F910F91FF90EF9008951F920F920FB6F4
:101AE0000F9211240BB60F922F933F934F935F9356
:101AF0006F937F938F939F93AF93BF93EF93FF93D6
:101B00008091F405813041F080912006811104C05C
:101B10002DD681E00E94B035FF91EF91BF91AF913A
:101B20009F918F917F916F915F914F913F912F91F5
:101B30000F900BBE0F900FBE0F901F9018952F9215
:101B40003F924F925F926F927F928F929F92AF924D
:101B5000BF92CF92DF92EF92FF920F931F93CF939A
:101B6000DF93CDB7DEB7A1970FB6F894DEBF0FBEF7
:101B7000CDBF9091F5059111AFC1782EFE013D9634
:101B800089E0DF011D928A95E9F786E08D8BECE014
:101B9000F7E0FA8FE98F5F019E012A5E3F4F49010E
:101BA00000E010E0C12CD12C7601872D90E09E8FB3
:101BB0008D8F802F0E943527D4018D934D018D8DFF
:101BC0009E8D002E02C0959587950A94E2F780FFBE
:101BD00019C020E030E040EC5FEBF50164A175A195
:101BE00086A197A10E94F238362E472E582E692ED4
:101BF000A70196010E94B43687FD04C0C32CD42CE3
:101C0000E52CF62C0F5F1F4FF4E0AF0EB11C033034
:101C1000110579F68090570790905807A0905907C2
:101C2000B0905A0784E0682E01E064E176E0CE01CE
:101C300001960E94A53380915207282F30E038A3E7
:101C40002F8FFE01319684E196E09C8F8B8F1C01D3
:101C5000DE0156962D0180E090E019A210E0B70158
:101C6000A60170582D8D3E8D082E02C03595279502
:101C70000A94E2F720FF24C0B9A1BF5FB9A3D10144
:101C80001D921D921D921C9213972F8D38A1082E24
:101C900002C0359527950A94E2F720FF03C0002380
:101CA00019F007C0002329F0C082D182E282F382BA
:101CB00004C04083518362837383D2012C91122B21
:101CC0000196BFEF4B1A5B0A349624E0220E311CBA
:101CD0008330910539F639A1632F70E080E090E000
:101CE0000E9454370E947F399B01AC011093FA0582
:101CF000C501B4010E94F2386D877E878F87988B6B
:101D0000BE01635F7F4FCE0101960E94551884E0AB
:101D10008093F8050E94AF2B0E9472280023E1F007
:101D2000ABDEFE01769620E030E090E06191462F38
:101D3000412359F0AC01022E02C0559547950A94F3
:101D4000E2F740FF02C0609516232F5F3F4F23301C
:101D5000310561F71093FA050E94AF2B80910606BA
:101D6000847321F11091060614FF03C086E00E94DF
:101D7000B03515FF03C087E00E94B035011105C0E2
:101D80007BDE872139F088E003C012FF03C089E0C1
:101D90000E94B03580912006882321F0E7D40E946C
:101DA000121E9AC084E00E94A63504C0812F8C7157
:101DB00009F0B4CF0E943B2B80915B0790915C07A8
:101DC000D5D591E00927C9F020E030E040EA50E4A1
:101DD00060915D0770915E0780915F079091600749
:101DE0000E94F2386B017C01809053079090540759
:101DF000A0905507B090560710C0C0905D07D090D6
:101E00005E07E0905F07F090600780905707909022
:101E10005807A0905907B0905A076A94611005CFEF
:101E2000E0905207F12C80905D0790905E07A090A3
:101E30005F07B09060072401350177FA709477F856
:101E4000709400E010E08D8D9E8D002E02C095955F
:101E500087950A94E2F780FF2CC0C701002E02C0CC
:101E6000959587950A94E2F7A98DBA8D80FF11C0E8
:101E700094962D913D914D915C919797C501B40138
:101E80000E94DB35E98DFA8D2081318142815381B9
:101E900006C02D913D914D915C91C301B2010E940C
:101EA000F2380E94C238EB8DFC8D6083718382838F
:101EB00093830F5F1F4F2B8D3C8D2C5F3F4F3C8FCB
:101EC0002B8F898D9A8D04969A8F898F03301105F7
:101ED00009F0B9CF1092F805A1960FB6F894DEBFBD
:101EE0000FBECDBFDF91CF911F910F91FF90EF906B
:101EF000DF90CF90BF90AF909F908F907F906F902A
:101F00005F904F903F902F9008950E94BF33882399
:101F1000D9F081E08093F7058091F405883031F0A5
:101F200025D482E00E94B0350C94121E88E00E94F5
:101F3000F8330E94121E8091F505811105C0809131
:101F4000F4058111F6CFECCF08950E9422240E945F
:101F50002C270E946C2B0E9411338CE0E4E1F6E008
:101F6000DF011D928A95E9F778941092F40580912B
:101F7000510784FF03C081E08093F40584EFE82ECD
:101F800085E0F82E91E1D92EC4E608E016E0DCE009
:101F90008091F405F7019D2D11929A95E9F78093B0
:101FA000F405C093FB05C093FC05C093FD05D80163
:101FB000ED2F1D92EA95E9F710920706109206069A
:101FC000109220061092F305109205060E940A2531
:101FD0000E94AE020E9462270E94F30145DD0E942A
:101FE0003B1C09D70E943B2B0E940C1B0E94C00285
:101FF0000E943B200E94161FCBCF0F931F93CF93BD
:10200000DF938C01EB018091510785FF06C0809121
:10201000F405803211F0C80178DF8091F405823038
:1020200021F10E94121E8091F50581111EC031D749
:10203000882319F00E94621CF4CFBE01C8010E94DF
:102040005518811112C08091510781FF0EC08885FB
:1020500084FF0BC04C815D816E817F8180E1DF91C7
:10206000CF911F910F910C945528DF91CF911F9123
:102070000F9108952F923F924F925F926F927F92AD
:102080008F929F92AF92BF92CF92DF92EF92FF9288
:102090000F931F93CF93DF93CDB7DEB7E0970FB6C3
:1020A000F894DEBF0FBECDBF988B8F877E876D877C
:1020B0005A8B498B3901E986FA860B871C878D8AF2
:1020C00026962FAD26972B8B34E0C39E60011124FA
:1020D000CA018C0D9D1D9A8F898FD301AC0DBD1D3A
:1020E000BC8FAB8F2D903D904D905C90FC0120817A
:1020F000318142815381C201B1010E94DB356D8F74
:102100007E8F8F8F98A3F4E0AF9E800111242989E0
:102110003A89200F311F3AA329A3C301800F911FD1
:102120009CA38BA3DC018D909D90AD90BC90F90198
:102130002081318142815381C501B4010E94DB3588
:102140006DA37EA38FA398A7D201C101B0588D8340
:102150009E83AF83B887D501C401B05889839A8321
:10216000AB83BC83EF85F889EC0DFD1D2D8D3E8D75
:102170004F8D58A160817181828193810E94DA35EF
:102180006B017C01EF85F889E00FF11F2DA13EA1C5
:102190004FA158A560817181828193810E94DA35B7
:1021A0004B015C01A70196016D817E818F8198852D
:1021B0000E94F2382B013C01A501940169817A81CA
:1021C0008B819C810E94F2389B01AC01C301B2015A
:1021D0000E94DB352B013C01A50194016D817E81BC
:1021E0008F8198850E94F2384B015C01A70196010E
:1021F00069817A818B819C810E94F2389B01AC01BC
:10220000C501B4010E94DA35A30192010E944E3645
:102210006B017C019B89992399F02DEB37E346E014
:1022200055EBC701B6010E94B73887FD1DC02BEDE5
:102230003FE049EC50E4C701B6010E94DA3512C014
:102240002DEB37E346E055E3C701B6010E94B436F3
:10225000181654F02BED3FE049EC50E4C701B601ED
:102260000E94DB356B017C0180904507909046070A
:10227000A0904707B090480729853A854B855C8533
:10228000CA01B9010E94DB35A50194010E94DA352B
:10229000A50194010E94F2380E947F394B015C0134
:1022A00020E030E040E05FE3C701B6010E94F23871
:1022B00029853A854B855C850E94F2389F77A50178
:1022C00094010E94BB360E9491370E9428377C8B74
:1022D0006B8BDB01AB2BE9F46D857E858F8598894F
:1022E000E0960FB6F894DEBF0FBECDBFDF91CF9161
:1022F0001F910F91FF90EF90DF90CF90BF90AF9024
:102300009F908F907F906F905F904F903F902F9015
:1023100074CEED85FE8510854B01A12CB12C13FFE9
:1023200016C0C501B4010E9454379B01AC01AD85B4
:10233000BE856D917D918D919C910E94F238ED85C5
:10234000FE856083718382839383177F1087C50125
:10235000B4010E9454372B013C019B01AC01C70121
:10236000B6010E94BB3669877A878B879C872D8947
:10237000F4E02F9F4001112409891A89080D191DC5
:10238000EF85F889E80DF91DD8012D913D914D910A
:102390005C9160817181828193810E94DA35A30111
:1023A00092010E94BB366DA77EA78FA798AB2985A7
:1023B0003A854B855C85CA01B9010E94F2389B01C0
:1023C000AC0160E070E080E090E40E94DA356B01DF
:1023D0007C012BEA3AEA4AE25EE369857A858B85DD
:1023E0009C850E94F2384B015C0120E030E040E81F
:1023F00050E4C701B6010E94DB359B01AC01C50169
:10240000B4010E94F2386D8B7E8B8F8B988F20E009
:1024100030E040E05FE3C701B6010E94F23869A7EF
:102420007AA78BA79CA7712C22242394312CEB89AB
:10243000FC892E163F0609F44FCFBBE0B71508F410
:1024400044C029A53AA54BA55CA569817A818B81F9
:102450009C810E94F2386B017C012D893E894F8955
:10246000588D6D817E818F8198850E94F238A701F9
:1024700096010E94DB357B016C0129A53AA54BA58D
:102480005CA56D817E818F8198850E94F2384B0119
:102490005C012D893E894F89588D69817A818B81B4
:1024A0009C810E94F2389B01AC01C501B4010E94DD
:1024B000DA356D837E838F8398877394C701D60145
:1024C00089839A83AB83BC8365C0B10180E090E0CF
:1024D0000E94543729853A854B855C850E94F238E5
:1024E0006B017C010E94B8362B013C01C701B6018B
:1024F0000E9475394B015C01EB8DFC8DC080D18051
:10250000E280F380F7FAF094F7F8F094ABA1BCA165
:102510008D919D910D90BC91A02D89839A83AB8361
:10252000BC83A7019601C301B2010E94F2386D83FA
:102530007E838F83988729813A814B815C81C50195
:10254000B4010E94F2389B01AC016D817E818F81C4
:1025500098850E94DB356D837E838F839887A701E2
:102560009601C501B4010E94F2386B017C012981FA
:102570003A814B815C81C301B2010E94F2389B0118
:10258000AC01C701B6010E94DA3569837A838B8377
:102590009C83712C2D8D3E8D4F8D58A16D817E8138
:1025A0008F8198850E94DB35E98DFA8D6083718378
:1025B000828393832DA13EA14FA158A569817A8181
:1025C0008B819C810E94DB35A9A1BAA16D937D937B
:1025D0008D939C9313972DA53EA54FA558A9F8015F
:1025E00060817181828193810E94DB35D8016D9376
:1025F0007D938D939C9313976D857E8589899A89A8
:10260000FCDC8091F505811104C0BFEF2B1A3B0A59
:102610000ECFE0960FB6F894DEBF0FBECDBFDF91B0
:10262000CF911F910F91FF90EF90DF90CF90BF90CF
:10263000AF909F908F907F906F905F904F903F9062
:102640002F900895CF92DF92EF92FF922091F405A0
:10265000223061F06B017C010E949D1F40E0C701A8
:10266000B601FF90EF90DF90CF9052C1FF90EF90B6
:10267000DF90CF900895FFD984E061DA83E05FDADC
:102680000E94121E8091F505811104C00E94C002B3
:10269000C3D7EAC90895EF92FF920F931F93CF9388
:1026A0002091F405223009F45AC0C42F7B018C011B
:1026B0000E949D1F8091F505811113C01092F905AC
:1026C000C3FB882780F90E94291C0E94471C88238D
:1026D00051F084E00E94B0350E94121E80E00E94FA
:1026E000291C82E03DC0B701C80187DC81E08093EE
:1026F000070682E00E94F8330E94121E8091F505C1
:102700008111EFCF8091F4058111F6CF80910706FA
:10271000813081F4C4FF0AC08CE0E4E1F6E0A8E077
:10272000B6E001900D928A95E1F707C085E00E941E
:10273000B03503C081E08093F9051092070680E070
:102740000E94291C0E94121E0E943B2B54D364D766
:102750000E943C2181E09091F905911101C080E037
:10276000CF911F910F91FF90EF90089580910606F1
:1027700084FD1DC080E10E94F8330E945E270E9404
:10278000F1019091F405892F8C7221F48091F80564
:10279000867069F0943031F480912006811105C073
:1027A00086E001C083E00E94B0350C948E28089525
:1027B0004F925F926F927F92AF92BF92CF92DF92D1
:1027C000EF92FF920F931F93CF93DF937C016B01E6
:1027D0005A01FB01C081D0E0FC01EC0FFD1F80819C
:1027E0008D3229F4EF012296818101E00AC08B32FB
:1027F00021F02196CE0DDF1D03C0EF0122968181CD
:1028000000E0712CF0E010E020E030E0A901E0ED04
:10281000E80FEA30D0F4FF5FF93098F471101150EE
:10282000A5E0B0E00E942A3ADC01CB01880F991F95
:10283000AA1FBB1F9C01AD012E0F311D411D511D53
:102840000AC0711008C01F5F06C0EE3F31F471105E
:1028500004C0772473948991DACFFF2309F448C028
:10286000CA01B9010E9454372B013C0120E030E03D
:10287000A9010E94B436882349F11F3F64F42AE07D
:1028800037ED43E25CE3C301B2010E94F2382B0151
:102890003C011E5FF2CF1F3F59F42DEC3CEC4CEC99
:1028A0005DE3C301B2010E94F2382B013C010EC06E
:1028B000112361F020E030E040E251E4C301B201B5
:1028C0000E94F2382B013C011150F2CF002321F07D
:1028D00077FA709477F87094F501408251826282A1
:1028E0007382CE19DF09C150F601C08381E001C0B7
:1028F00080E0DF91CF911F910F91FF90EF90DF90DB
:10290000CF90BF90AF907F906F905F904F90089561
:102910001F93CF93DF93142F20E030E040EA51E47F
:102920000E94F2380E94A1360E942837EB012097BE
:10293000C9F08091F505811115C0111103C00E94E5
:10294000121E05C0C6D78091F60581FD0BC02FEF82
:1029500080E792E0215080409040E1F700C0000005
:102960002197E5CFDF91CF911F910895009741F016
:10297000EFE9FFE03197F1F700C000000197F6CFD3
:1029800008958F929F92AF92BF92CF92DF92EF9273
:10299000FF9269017A019B01AC010E94F2384B0160
:1029A0005C01A7019601C701B6010E94F2389B01A4
:1029B000AC01C501B4010E94DB35FF90EF90DF90C0
:1029C000CF90BF90AF909F908F900C947F394F9293
:1029D0005F926F927F92AF92BF92CF92DF92EF920F
:1029E000FF920F931F93CF93DF93EC015C018CE078
:1029F000A80EB11C8E01C12CD12C7601F80141909A
:102A00005190619071908F0120E030E0A901C301E5
:102A1000B2010E94B436882371F0A3019201C30170
:102A2000B2010E94F2389B01AC01C701B6010E94BD
:102A3000DB356B017C010A151B0501F7C701B601E7
:102A40000E947F396B017C019B01AC0160E070E06A
:102A500080E89FE30E94BB362B013C01A301920159
:102A6000688179818A819B810E94F2386993799388
:102A700089939993AC16BD0689F7C701B601DF911A
:102A8000CF911F910F91FF90EF90DF90CF90BF906B
:102A9000AF907F906F905F904F9008956F927F926C
:102AA0008F929F92AF92BF92CF92DF92EF92FF925E
:102AB0000F931F93CF93DF93EB018C015B018CE0AD
:102AC000A80EB11C89E9682E96E7792E26E9822E98
:102AD0003EE7932EC990D990E990F99020E030E03C
:102AE000A901C701B6010E94B4368823B9F0A70135
:102AF0009601F80160817181828193810E94BB36C9
:102B00006B017C01E894F7F89301A401C701B601B9
:102B10000E94B738181614F0360147010C5F1F4F9A
:102B2000CA15DB05B9F6B301C401DF91CF911F913E
:102B30000F91FF90EF90DF90CF90BF90AF909F905C
:102B40008F907F906F9008952F923F924F925F9257
:102B50006F927F928F929F92AF92BF92CF92DF92AD
:102B6000EF92FF920F931F93CF93DF93C0911E01BB
:102B7000C11101C0C0E1C150D0911C01DC1709F4A2
:102B80001DC1EC2EF12C22E3C29F80011124005EB6
:102B90001E4FF801A688B788C08CD18C628D738DCA
:102BA000848D958D9B01AC010E94DB35F801268D4B
:102BB000378D40A151A10E94F2384B018C019B013D
:102BC000AC01B501C6010E94B43687FD02C05401B4
:102BD000680182E38E9DF0018F9DF00D1124E05E6F
:102BE000FE4FC501D601828B938BA48BB58BC1118F
:102BF00001C0C0E1C150DC1761F022E32E9DC0018D
:102C00002F9D900D11249C01205E3E4F7901D2E34F
:102C100033C080911F01D81360C00E948B2B5DC010
:102C2000AC2EB12CDA9DC001DB9D900D1124FC016E
:102C3000E05EFE4F6F01C11101C0C0E1C150809143
:102C40001F018C1302C00E948B2BDA9D8001DB9D3B
:102C5000100D1124005E1E4FF80186889788A08C05
:102C6000B18CA501940162897389848995890E9438
:102C7000B436811106C0760180911C01C813D0CFF3
:102C80002CC0F801628D738D848D958D9B01AC01F4
:102C90000E94DB35F801268D378D40A151A10E949D
:102CA000F238F70122893389448955890E94DB353E
:102CB0002B013C019B01AC01C501B4010E94B73856
:102CC000F80118162CF4428A538A648A758AD3CF85
:102CD000828A938AA48AB58ACECFD0911C01F2E36E
:102CE000DF9F80011124005E1E4FC1E0CD0FC03177
:102CF00009F4C0E020901E0182E3382EC21509F4C9
:102D00005BC0CC2ED12C3C9CC0013D9C900D11246D
:102D10009C01205E3E4F7901F80142885388648807
:102D20007588F90182889388A488B588A5019401E3
:102D3000C301B2010E94B43687FF24C0F801628D3E
:102D4000738D848D958D9B01AC010E94DB35F8015C
:102D5000268D378D40A151A10E94F238A301920126
:102D60000E94DB352B013C019B01AC01C501B40184
:102D70000E94B738181634F4F701428A538A648ADD
:102D8000758ADC2F3C9CF0013D9CF00D1124E05E27
:102D9000FE4F26893789408D518D628973898489D8
:102DA00095890E94B436811101C0DC2FCF5FC031FC
:102DB00009F4C0E08701A2CFD0931C01DF91CF912D
:102DC0001F910F91FF90EF90DF90CF90BF90AF9049
:102DD0009F908F907F906F905F904F903F902F903B
:102DE000089510921F0110921E0181E080931D0131
:102DF00010921C0108958CE1E0E0F1E0DF011D92EA
:102E00008A95E9F7EECF90911F0180911E018917F5
:102E100069F081E0890F803109F480E020911C0184
:102E2000921302C080931C0180931F01089580912A
:102E30001E0122E3829FC0011124805E9E4F0895EF
:102E400080911F0190911E01981739F022E3829F13
:102E5000C0011124805E9E4F089580E090E00895A7
:102E6000E0911F01EF5FE03109F4E0E080911E0185
:102E70008E1759F082E3E89FF0011124E05EFE4FC7
:102E80006289738984899589089560E070E0CB0137
:102E9000089581E020911F0190911D01291380E088
:102EA0000895BF92CF92DF92EF92FF920F931F93FC
:102EB000CF93DF937C01FC0102A513A5D4A5C5A582
:102EC000818980FF18C06091FC0570E080E090E08F
:102ED0000E9456372AE037ED43E25CE30E94F23865
:102EE0009B01AC01B8018D2F9C2F0E94F2388B0101
:102EF000D82FC92F2DC082FD17C06091FB0570E04F
:102F000080E090E00E9456372AE037ED43E25CE330
:102F10000E94F2389B01AC01B8018D2F9C2F0E94BA
:102F2000F2388B01D82FC92FF701B6A0C7A0D0A4C3
:102F3000F1A42B2D3C2D4D2D5F2DB8018D2F9C2FF5
:102F40000E94B738181624F40B2D1C2DDD2DCF2D23
:102F500020E030E040E85FE3B8018D2F9C2F0E9415
:102F6000B738181624F000E010E0D0E8CFE3B8013D
:102F70008D2F9C2FDF91CF911F910F91FF90EF909C
:102F8000DF90CF90BF9008955F926F927F928F9263
:102F90009F92AF92BF92CF92DF92EF92FF920F93E8
:102FA0001F93CF93DF93C0911F0150901E0189E9B9
:102FB000F82E06E716E9DEE792E3692EC51509F457
:102FC00058C0AC2EB12C6A9CC0016B9C900D112492
:102FD0009C01205E3E4F6901C90163DF762E872E7A
:102FE000982EE92E262F372F482F592F6F2D702F0F
:102FF000812F9D2F0E94B43687FF09C02F2D302FBF
:10300000412F5D2F6F2D702F812F9D2F08C0272DF1
:10301000382D492D5E2D672D782D892D9E2D0E94EE
:10302000F238F601668B778B808F918F6A9C8001D6
:103030006B9C100D1124005E1E4FF801A2A0B3A0DE
:10304000C4A0D5A0A601950166897789808D918D50
:103050000E94B73818162CF4F801A68AB78AC08ED9
:10306000D18ECF5FC03109F4C0E0F72C8401DE2D92
:10307000A5CF8F2D902FA12FBD2F80931801909356
:103080001901A0931A01B0931B01DF91CF911F91F9
:103090000F91FF90EF90DF90CF90BF90AF909F90F7
:1030A0008F907F906F905F9008952F923F924F92F4
:1030B0005F926F927F928F929F92AF92BF92CF92C8
:1030C000DF92EF92FF920F931F93CF93DF93CDB7D1
:1030D000DEB7C454D1090FB6F894DEBF0FBECDBF22
:1030E0007B0120911E01222E312C32E3329DA00162
:1030F000339D500D1124BA01605E7E4F7AAF69AFE7
:10310000FB0111923A95E9F7F7013085FB01318B0C
:10311000F7014481558166817781E9ADFAAD46A713
:1031200057A760AB71AB31FF04C03CE0E4E1F6E0CF
:1031300003C03CE0E0E0F1E0DE01599601900D9221
:103140003A95E1F78BAB9CAB6CE077E07EAB6DAB77
:10315000CE01859623969FAF8EAF2397FE01799679
:103160002196FFAFEEAF2197F2E32F9FC00111240C
:103170009C01205E3E4F3EAF2DAFBE01635F7F4F8F
:103180007CAF6BAF78AF6FAB10E082E3829D9001B4
:10319000839D300D1124C901805E9E4FFC013C9639
:1031A0002596FFAFEEAF25976C01F0E1CF0ED11C55
:1031B000EBA9FCA96191719181919191FCABEBAB71
:1031C000EDA9FEA981909190A190B190FEABEDABDD
:1031D000A50194010E94F2380E94C2382396EEADF8
:1031E000FFAD239761937193819391932396FFAFE2
:1031F000EEAF23972196EEADFFAD21974190519010
:10320000619071902196FFAFEEAF21976419750917
:10321000860997092B013C0197FF07C044245524D8
:103220003201461A570A680A790AEDADFEAD41929D
:10323000519261927192FEAFEDAF2596EEADFFAD6A
:10324000259720813181428153812415350546051A
:10325000570510F4A30192012596EEADFFAD259719
:1032600020833183428353830E945637A501940102
:103270000E94BB36EFA9F8AD61937193819391934E
:10328000F8AFEFAB20E030E0A9010E94B43687FF31
:1032900007C0812F0E943F27F6019081892B8083F0
:1032A0001F5F133009F084CF82E3829D8001839DEC
:1032B000100D1124005E1E4FF80184859585A685AA
:1032C000B785892B8A2B8B2B09F489C1CE010D96EA
:1032D0007EDBF801668F778F80A391A3BE01635FC9
:1032E0007F4F84E297E0DADBF801628F738F848F7F
:1032F000958FBE01635F7F4F88E197E0CFDBF801D8
:1033000066A377A380A791A7D188D0FC13C0F7014B
:103310002081318142815381F80122A733A744A73C
:1033200055A7D3FE0BC0668D778D80A191A10E9419
:10333000F238F80162A773A784A795A790911E01A0
:1033400080911F01981711F0D1FE0DC082E3829D7C
:10335000F001839DF00D1124E05EFE4F128A138A66
:10336000148A158A54C02CE031E03CAB2BAB8E01A3
:103370000F5F1F4FBE01675E7F4F7AAB69ABC12CF9
:10338000D12C76010DAB1FABEBA9FCA981909190DC
:10339000A190B190FCABEBABEBADFCAD419051908B
:1033A00061907190FCAFEBAFA3019201C501B40134
:1033B0000E94F2389B01AC01C701B6010E94DA35C8
:1033C0006B017C01A5019401C301B2010E94DA35B1
:1033D000F80161937193819391938F0129A93AA97F
:1033E0006BAD7CAD2617370779F62FEE3FEF4FE731
:1033F0005FE3C701B6010E94B73818166CF482E388
:10340000829DF001839DF00D1124E05EFE4F12A21B
:1034100013A214A215A272C02FEE3FEF4FE75FEB8D
:10342000C701B6010E94B43687FF11C082E3829DB6
:10343000F001839DF00D1124E05EFE4F89E996E7CF
:10344000A6E9BEE782A393A3A4A3B5A357C08DA901
:103450009FA9BDDA6DA97FA984E297E01FDB4B012C
:103460005C01A701960160E070E080E89FE30E94A4
:10347000DA3520E030E040E05FE30E94F2380E945D
:103480007F396B017C0120914107309142074091C7
:10349000430750914407C501B4010E94F238A701C7
:1034A00096010E94F2384B015C01A701960160E091
:1034B00070E080E89FE30E94DA359B01AC01C50112
:1034C000B4010E94BB367B018C0120E030E0A901F1
:1034D0000E94B43687FF04C0E12CF12C00E010E01C
:1034E00082E3829DF001839DF00D1124E05EFE4F8A
:1034F000A701B80142A353A364A375A382E3829DED
:103500008001839D100D1124005E1E4FF8018189FA
:1035100081FD67C089AD9AADC4DC6B017C018090F0
:10352000180190901901A0901A01B0901B01A501FB
:1035300094010E94B73818162CF4A5019401C50116
:10354000B40104C0A7019601C701B6010E94F23878
:10355000F801668B778B808F918F82E3829D80014B
:10356000839D100D1124005E1E4FF80182A093A0D0
:10357000A4A0B5A0A501940166897789808D918D5D
:103580000E94B73818162CF4F801868A978AA08E04
:10359000B18EC0921801D0921901E0921A01F092F6
:1035A0001B018CE0FE013D96ACE0B1E001900D9274
:1035B0008A95E1F78CE0FE01B596A0E0B1E00190BC
:1035C0000D928A95E1F780911D0180931E018F5F16
:1035D000803109F480E080931D01B6DA02C080E0FA
:1035E00001C081E0CC5BDF4F0FB6F894DEBF0FBEA9
:1035F000CDBFDF91CF911F910F91FF90EF90DF90A2
:10360000CF90BF90AF909F908F907F906F905F9082
:103610004F903F902F900895E4E1F6E0A0E0B1E0F4
:1036200041915191619171914D935D936D937D9312
:1036300086E0E032F807A1F7089590911E0180918D
:103640001F01981710F0815F01C08150891B0895F8
:103650000E948B2B80911F0180931C0175CACF9310
:10366000DF93EC018991882319F00E943024FACF6E
:10367000DF91CF910895CF93DF93FC018491EF0107
:103680002196882321F00E943024FE01F7CFDF919C
:10369000CF910895CF93DF93843630F06AE00E9493
:1036A000DF39C0E3C90F03C0C0E08A3030F06AE000
:1036B0000E94DF39D0E3D90F01C0D0E0805D0E94C5
:1036C0003024DD2319F08D2F0E943024CC2329F0E3
:1036D0008C2FDF91CF910C943024DF91CF910895FE
:1036E0008F929F92AF92BF92CF92DF92EF92FF9212
:1036F0000F931F93CF93DF93CDB7DEB72D970FB600
:10370000F894DEBF0FBECDBF6B017C01042F20E01B
:1037100030E0A9010E94B43687FF07C08DE20E9405
:103720003024F7FAF094F7F8F094102F123060F08C
:1037300020E030E048EC52E4C701B6010E94F238C4
:103740006B017C011250F2CF00FF0AC020E030E094
:1037500040E251E4C701B6010E94F2386B017C01DE
:1037600020E030E040E05FE3C701B6010E94DB35B6
:103770000E94233710E03AE0832E912CA12CB12C2B
:10378000611571058105910591F0EE24E394F12C0A
:10379000EC0EFD1EE10EF11CA50194010E94FF3903
:1037A000605DF7016083B901CA011F5FE9CF80E363
:1037B000101748F4E1E0F0E0EC0FFD1FE10FF11D00
:1037C00080831F5FF5CF101313C0FE01E10FF11DC1
:1037D00080E381831F5F0CC0101303C08EE20E9440
:1037E0003024FE01E10FF11D80810E943024115030
:1037F0001111F2CF2D960FB6F894DEBF0FBECDBFDC
:10380000DF91CF911F910F91FF90EF90DF90CF90BC
:10381000BF90AF909F908F9008952091510720FF07
:1038200008C02BE832E441E25DE30E94F23844E054
:1038300001C043E055CF2091510720FF08C02BE87D
:1038400032E441E25DE30E94F23841E001C040E031
:1038500047CF109221069091510797FD03C090E148
:1038600090932106882331F09091210680E18927E9
:10387000809321060895E4E6F0E080818F7E8083C6
:10388000E5E6F0E080818061808380E0E2CF809196
:10389000630080719091210689270895F8DF8823BD
:1038A00081F0109207068CE0E4E1F6E0A8E0B6E0D3
:1038B00001900D928A95E1F78091060680648093CD
:1038C00006060895BDDA892B19F082E00C94F833CE
:1038D0000895CF93C0912006CC23A9F081E0809376
:1038E000F4058C2F88D3C150C23018F00E94B63531
:1038F0000AC081E08DD380E10E94A6358091060642
:1039000084FFFCCFF3CFC0910606CC2309F4EEC0B0
:10391000C4FF04C081E08093F50582C1C0FF04C0EC
:10392000E1D581E00E94A6358C2F887E09F45FC026
:103930008091F405982F937009F048C08872A1F027
:103940008091F605807C81F40E948B2B82E080932D
:10395000F8058091F405803239F4C7FD5FC180918C
:10396000F60580688093F6058091F405811103C007
:1039700091E09093F605C6FF07C085FD05C09091C4
:10398000F60590649093F605C3FF05C0807E19F498
:1039900080E18093F405C5FF19C086E039D380919A
:1039A000F60587FD0EC09091F405903439F483FF3D
:1039B00031C1837E82608093F6052CC1903809F076
:1039C00029C18091F60580628093F605C7FF0CC07F
:1039D0008091F405813029F48091F605856080930B
:1039E000F60580E88093F40588EE0E94A635C1FFB5
:1039F00043C08C2F8876E9F58091F405803471F40A
:103A00008091F60585FD0AC084FF03C01092F4057D
:103A100005C082FF03C088608093F6058091F4059D
:103A2000882381F084FF25C09091F60590FF21C086
:103A3000803141F48091FE05882321F088608093D5
:103A4000FE0517C01092F805FBD9892B71F0809103
:103A5000F60586FD0AC01092F60588E08093F4050D
:103A60000E94AF2B0E94722804C01092F60510929B
:103A7000F40582E00E94A635C2FF38C08091F405AB
:103A8000807D9091F6058823A1F08091F705811142
:103A900010C097FD0EC0DCDD8091F80581FF05C0E8
:103AA0009091F60591609093F605897F8093F805D3
:103AB0001AC097FF08C01092F8059DD90E943B2BB1
:103AC0000E94C002A9DD8091F60585FF08C08F77AE
:103AD00081608093F60580E48093F40504C0109221
:103AE000F6051092F40584E00E94A635C091F30516
:103AF000CC2371F10E94CE353091FB05C0FF02C08E
:103B000084E601C0832FC1FD865FC2FD8A50C3FDDC
:103B10008F5FC4FD8150893C08F088EC8A3008F43E
:103B20008AE02091FC05C5FF02C094E601C0922FF7
:103B3000C6FD92E3C7FD99E1381302C0921741F028
:103B40008093FB059093FC051092FF051DDA80DD44
:103B5000C0910506CC2309F456C00E94D43590913B
:103B6000FD05C0FF02C084E601C0892FC1FD865F4C
:103B7000C2FD8A50C3FD8F5FC4FD8150893C08F0AF
:103B800088EC8A3008F48AE09817D1F08093FD051C
:103B90008091F40581110DC04091840550918505F7
:103BA0006091860570918705809182050E9430287A
:103BB00005C08091F80588608093F8051092FF0594
:103BC0008091F405C5FF0DC0803159F49091FE0538
:103BD000911102C092E003C090FF03C094609093E3
:103BE000FE05C07C81F0882311F0887361F0C091DC
:103BF0008105C6FF02C0CF7B01C0C0648C2F0E942C
:103C0000F501C09381058091F4058C7F49F0CF9137
:103C10000C94AF2B80E48093F405D3CE80E2ABCE3E
:103C2000CF910895CF92DF92EF92FF921F93CF939F
:103C3000DF934FDE8091F605882309F4EFC000D9A9
:103C40007C01009771F4C091820580918105C82B99
:103C5000C0908405D0908505E0908605F09087059A
:103C60000BC0FC01C189C0730E94EB01C82BF70196
:103C7000C6A4D7A4E0A8F1A88091510781FF03C092
:103C800080E20E94C535DC2FD07311E0C07C8091AA
:103C9000F605882309F4C2C09091F5059111BEC0C4
:103CA00080FFBAC09091F405292F207C09F471C0DF
:103CB00082FD12C01092FE0540E050E0BA0180E0A3
:103CC0000E94302880E00E94F5018091F6058D7FEA
:103CD00084608093F605A0C0903899F48BE098D169
:103CE00040E050E0BA0180E00E94302880E00E946D
:103CF000F5010E948E288091F50581118FC0E9DDC4
:103D0000FACF903449F40E946733811105C0809145
:103D1000F6058F7D8093F6058091F60583FF7CC0C4
:103D2000909182059923C1F081FD16C080915107C1
:103D300081FF06C08091F80588608093F8050CC06B
:103D4000B701A6018D2F0E94302841E060E070E0AD
:103D500080E890E40E94881480918105882371F0A6
:103D60008091F60581FD0AC08C2F0E94F50141E08B
:103D700060E070E080E89FE30E9488148091F6057F
:103D800081FD4AC080618093F60582E00E94F8338D
:103D900043C08091FE05882389F181FF0DC0809189
:103DA00082058823B1F040E050E0BA0180E00E9433
:103DB00030281093FE0530C08C7071F1809182051F
:103DC00081110AC08091FE0583FF03C082E00E943A
:103DD000F8331092FE0520C08AE01AD18091510775
:103DE00081FF06C08091F80588608093F805EACFCE
:103DF000B701A6018D2F0E943028E4CF8091F805ED
:103E000083FF0AC0B701A6018D2F0E943028809140
:103E1000F805877F8093F8055CDD39CFDF91CF917E
:103E20001F91FF90EF90DF90CF900895CF93DF9395
:103E30008091510783FF09C00E943C0D882329F01F
:103E400081E08093F40587E0E3D08091F4058178E8
:103E500031F082E0DDD081E08093F4052CC0109237
:103E6000F4050E946733882331F080910606806252
:103E700080930606D7DE80E494E00E9469331BC07D
:103E80008D3059F0DD2381F1893209F4DD7F29D5A8
:103E90008F3F09F448C08A3099F7C4DE8091F50558
:103EA000811148C0EC2FF0E0E05CFB4F1082D0FFA6
:103EB00005C08BE091D0C0E0D0E0E9CF8091400414
:103EC0008823C1F3843229F480E494E00E94013411
:103ED000F1CF8091F405817211F089E0EBCF80E49D
:103EE00094E00E94C602E6CF813288F28F3279F2E6
:103EF000883299F08B3399F0CF3498F42C2F30E03E
:103F0000E1E0EC0F9FE9980FD901A05CBB4F9A311B
:103F100008F480528C93CE2FBACFD2E0B8CFD4E041
:103F2000B6CFD1E0B4CFCEDC7DDE8091F50588231D
:103F300009F4ADCFDF91CF910895C4DC73DE809199
:103F4000F505811108C00E942017892BB9F78091CF
:103F5000F405883099F308958CE493E08CCB8DE5DB
:103F60007FD4FACF0F931F93CF938C01C0E0F80159
:103F700061917191819191918F014FDCC23011F06B
:103F80008CE26ED4CF5FC33091F7CF911F910F9128
:103F90000895CF93C82F84E263D48C2F7BDB8DE30D
:103FA000CF915EC4CF93C62FF4DF8C2F73DBCF91FC
:103FB000D3CFCF92DF92EF92FF92CF936A017B0132
:103FC000C22FE7DF4C2FC701B6018ADBCF91FF90EC
:103FD000EF90DF90CF90C0CFCF93811104C086E5E2
:103FE00093E0CF9148CBC82F8FE493E044DB8C2F34
:103FF00051DBCF91B1CFCF93C82F85E493E03BDB6A
:104000008C2F48DBA9DF84EF91E0CF910C94B6149C
:10401000CF93C82F8FE393E02EDB8C2F90E0FC0131
:104020003197EB30F10528F5E55AFF4F0C94213A12
:104030008DE293E01DC089E193E01AC087E093E030
:1040400017C08FEF92E014C086EF92E011C08BEEA4
:1040500092E00EC08EED92E00BC086ED92E008C0BB
:1040600083EC92E005C081EB92E002C088EA92E026
:1040700002DBCF9174CF8BE892E0FDCA81E492E03D
:10408000FACAEF92FF920F931F93CF93DF93609141
:104090003C0770E080E086DF60913F0770E081E0E0
:1040A00081DF60913D0770E082E07CDF60913E0738
:1040B00070E083E077DF6091510762FB662760F96B
:1040C00070E084E06FDF6091510766FB662760F95E
:1040D00070E085E067DF80915107082E000C990B96
:1040E000692F661F6627661F70E086E05BDF6091C0
:1040F000400770E08AE056DF409141075091420747
:10410000609143077091440723E08BE052DF4091B8
:10411000450750914607609147077091480723E093
:104120008CE047DF60915107617070E08DE03ADF0D
:104130006091510765FB662760F970E084E132DF2A
:104140006091510763FB662760F970E085E12ADF23
:10415000609151076295617070E086E123DF6091A4
:10416000520770E087E11EDF4091530750915407DA
:10417000609155077091560723E088E11ADF40915E
:104180005707509158076091590770915A0723E0DB
:1041900089E10FDF60915B0770915C078AE102DFC4
:1041A00040915D0750915E0760915F0770916007D5
:1041B00023E08BE1FEDE4091490750914A07609170
:1041C0004B0770914C0720E08EE1F3DE40914D07E4
:1041D00050914E0760914F077091500720E08FE19A
:1041E000E8DE609151076695617070E080E2DADE8A
:1041F000D4E6F12C0CE017E083E0E82EED0ECD2F95
:1042000082E0F81691F0E3E0FE16E9F0F1E0FF1627
:1042100031F0F80140815181628173811AC0F80147
:10422000448555856685778514C020E030E041E6F9
:1042300055E4F801608D718D828D938D0E94BB369F
:10424000AB01BC0106C0F80144A155A166A177A14C
:10425000705823E08C2FADDE0C5F1F4FCF5FCE1167
:10426000CFCFD65FF394DC3829F6DF91CF911F9141
:104270000F91FF90EF900895CF93DF93CDB7DEB706
:104280002C970FB6F894DEBF0FBECDBF8BE392E044
:10429000F2D968E076E0CE0101960E94A533CE0106
:1042A000019660DE8AE3DCD28091F905F3D957DE0E
:1042B0002C960FB6F894DEBF0FBECDBFDF91CF9125
:1042C00008951F93CF93DF93CDB7DEB72C970FB62A
:1042D000F894DEBF0FBECDBF10E0BE016F5F7F4F11
:1042E000812F62D4811107C08FE493E0C4D987E0A5
:1042F000D1D932DE2FC088E392E0BDD9163029F043
:10430000173039F482E392E002C085E392E0B3D93A
:1043100003C086E3810FBED98AE3A2D2CE01019603
:1043200021DE1DDE1F5F1830C1F68CE292E0A3D9BA
:1043300089EA95E017DE13DE86E292E09CD960916F
:10434000B5057091B6058091B7059091B80565DA0D
:1043500006DE92DF2C960FB6F894DEBF0FBECDBFFF
:10436000DF91CF911F91089580E292E084D98091EE
:1043700079058C3830F08CE192E07DD98091790517
:104380008A5888D980E192E076D980917F058A5C4D
:1043900081D980E192E06FD980917D058F5E7AD9D5
:1043A00080E192E068D990917B0585E1891B72D903
:1043B00080E192E060D980917C05865A6BD980E1DA
:1043C00092E059D990917A058EE5891B63D9809145
:1043D0008005882381F08DE092E04DD980918005A1
:1043E000833029F08E3131F0823029F403C080E32C
:1043F00037D201C04FD98DE092E03DD9809182053E
:10440000803131F0803231F0811106C085E303C084
:1044100083E301C084E324D28DE092E02CD9809123
:104420008105882311F088E301C089E319D289E16D
:1044300092E021D980918C052DD986E192E01BD99B
:10444000609188057091890580918A0590918B050E
:10445000F2D983E192E00FD96091840570918505CE
:10446000809186059091870540E03AD978CD1F93D9
:10447000CF93DF93182FEB018AE092E0FCD8812FD5
:1044800009D98DE3EDD1CE01EAD8DF91CF911F910B
:1044900063CD0F931F93CF938C01C62F8EE3E0D192
:1044A000C801DDD88AE3DCD18C2FCF911F910F9109
:1044B00093CDCF93DF93EC0186EF91E0DCD8CE0172
:1044C000CED84DDD80EF91E0D6D886E5C9D18CE21B
:1044D000C7D18FE0DFD88CE2C3D180E8DBD8DF9191
:1044E000CF913DCD4F925F926F927F92AF92BF92EC
:1044F000CF92DF92EF92FF920F931F93CF93DF93B0
:10450000CDB7DEB7A4970FB6F894DEBF0FBECDBF10
:104510008CE0E4E1F6E0DE01599601900D928A9577
:10452000E1F7BE01675E7F4FCE010D960E94A53375
:104530008CE396D18091F4058830E1F058F4813015
:1045400091F1A8F0823091F1843009F03FC088EDFC
:1045500091E03BC0803221F118F4803171F036C017
:10456000803439F1803891F580EC91E02EC08BEEEB
:1045700091E02BC087EE91E028C08091F60587FD81
:104580000FC081EE91E077D88091F60580FF06C0DC
:1045900080E319C082FF16C085FFFACF81E313C004
:1045A0008DED91E012C082ED91E00FC08CEC91E0B6
:1045B0000CC086EC91E05FD88091F60583FFEACFCE
:1045C00083E301C082E34CD101C055D880914007FC
:1045D000282F2170E22E80FD14C04090B505509028
:1045E000B6056090B7057090B8058DE9A82E85E0F6
:1045F000B82E8E010F5F1F4FCE010D966C01F12C6E
:104600002CC080910006882341F389EB91E040C0E3
:10461000A30192010E94DB35F801608371838283DC
:104620009383E110F2CFF8012081318142815381DF
:10463000F60160817181828193810E94DA35F601F1
:104640006083718382839383F3940C5F1F4FF4E044
:10465000CF0ED11C23E0F216B9F0F50161917191F2
:10466000819191915F0120853185428553850E941A
:10467000DB35F8016083718382839383F2E0FF1658
:1046800039F2EE2081F2E0CFE110BFCF82EB91E072
:104690000E943B1BCE010D9665DC8091400781FF97
:1046A0000DC08DEA91E00E943B1B0E941D1B0E94E1
:1046B0004A1B8CE2D5D0BBD00E944A1B88EA91E00D
:1046C0000E943B1B0E940033B6D88CE2C9D0609197
:1046D000010670910206809103069091040640E065
:1046E0000E94701B0E943C0D082F0E941833182F47
:1046F000CED8F82E802F812B8F2921F183EA91E0EB
:104700000E943B1BFF2011F080E5AAD0002361F03E
:1047100000FF02C088E5A4D001FF02C089E5A0D057
:1047200002FF02C08AE59CD0112361F010FF02C095
:1047300082E596D011FF02C088E492D012FF02C039
:1047400083E58ED080910006882321F081508093EC
:10475000000617C08091F4058C7711F08DE101C03F
:1047600089E0809300068091FF05811103C081E0FC
:104770008093FF058DE991E00E943B1BCE010196DD
:10478000F1DB8091FF05882321F081508093FF05A4
:1047900036C08091F4058C7711F083E101C089E087
:1047A0008093FF0588E991E00E943B1B8091FB0507
:1047B0000E944A1B8CE254D08091FC050E944A1B47
:1047C0008CE24ED08091FD050E944A1B6CD3182FBD
:1047D0000E94EB01082F111102C0882381F084E9A7
:1047E00091E00E943B1B112331F0113011F483E55D
:1047F00001C083E435D006FF02C086E431D08EE3E9
:104800002FD0AADBA4960FB6F894DEBF0FBECDBFA3
:10481000DF91CF911F910F91FF90EF90DF90CF909C
:10482000BF90AF907F906F905F904F900895809170
:10483000920490919304981710F0805801C0815011
:10484000891B0895599A1092900080E189B98AB124
:1048500088698AB9E5E9F0E08081866080830895FF
:10486000E091910491E09E0F993631F490E004C0FC
:104870002091060624FD0BC0209190042917C1F356
:10488000F0E0EE5DF94F808390939104559A08957E
:104890001F920F920FB60F9211240BB60F928F93A7
:1048A0009F93EF93FF9380919004E82FF0E0EE5DEB
:1048B000F94F90819CB98F5F893609F480E080932D
:1048C000900490919104891301C05598FF91EF9144
:1048D0009F918F910F900BBE0F900FBE0F901F9066
:1048E00018959091920480919304981761F0E92FA4
:1048F000F0E0E557F94F80819F5F913809F490E02F
:104900009093920408958FEF08951F920F920FB61F
:104910000F9211240BB60F922F933F934F935F93F7
:104920006F937F938F939F93AF93BF93EF93FF9377
:10493000ECB1E13271F028F4E83179F40E94B61359
:1049400056C0EF3321F0EE3741F482E003C081E03E
:1049500001C088E00E94F8334AC0E7FF37C08E2FBD
:1049600090E0FC01E458F109ED31F10508F03FC099
:10497000EA59FF4F0C94213A80E2ECCF8091F40584
:1049800085FF35C080E4E6CF81E00DC082E00BC03A
:1049900084E009C088E007C080E105C080E203C070
:1049A00080E401C080E80E94BC3521C081E00BC0DA
:1049B00082E009C084E007C088E005C080E103C050
:1049C00080E201C080E40E94C53511C0A09193042B
:1049D00081E08A0F813809F480E090919204891770
:1049E00031F0B0E0A557B94FEC9380939304FF9159
:1049F000EF91BF91AF919F918F917F916F915F9157
:104A00004F913F912F910F900BBE0F900FBE0F90C3
:104A10001F901895809193048093920408950F93AA
:104A20001F93CF93C82F8B0188DA21E5C29FC00165
:104A3000112440E550E0B8019D5FCF911F910F9187
:104A40000C94310240E550E0BC018EEA93E00C94F6
:104A500031020F931F93CF93C82F8B016EDA2DE095
:104A6000C29FC00111244CE050E0B8019E5FCF917D
:104A70001F910F910C9431026AE080E090E00E9457
:104A8000160245E550E06CE077E081E090E00C94A0
:104A90003102EF92FF920F931F93CF93DF93CDB725
:104AA000DEB72C970FB6F894DEBF0FBECDBF182F20
:104AB00080FF0AC085E5EBE5F3E0ACE0B7E00590E8
:104AC0000D928A95E1F7D8DF11FF0FC0CE01019654
:104AD0007C018CE0F70111928A95E9F700E0B701BB
:104AE000802FB7DF0F5F0830D1F712FF14C060E0EE
:104AF00080E093E00E94160260E081E093E00E9473
:104B0000160260E081E593E00E94160260E082E513
:104B100093E00E94160213FF0AC060E08EEA93E061
:104B20000E94160260E08FEA93E00E9416022C9623
:104B30000FB6F894DEBF0FBECDBFDF91CF911F91AE
:104B40000F91FF90EF9008951F93CF93DF93182F4D
:104B5000EB0181E5189FB00111247D5F40E550E035
:104B6000CE010E946C02892B31F41882BE01812F84
:104B700056DF80E001C081E0DF91CF911F91089561
:104B8000CF93DF93EC0140E550E06EEA73E00E94C2
:104B90006C02892B29F41882CE0154DF80E001C019
:104BA00081E0DF91CF9108951F93CF93DF93182F6A
:104BB000EB018DE0189FB00111247E5F4CE050E0C6
:104BC000CE010E946C02892B51F48CE0FE011192FF
:104BD0008A95E9F7BE01812F3CDF80E001C081E0CA
:104BE000DF91CF911F91089580E090E00E940E0226
:104BF0008A3059F445E550E061E070E08CE097E0E0
:104C00000E946C0221E0892B09F420E0822F089594
:104C1000CF92DF92EF92FF92CF93DF93C82F6A017A
:104C20007B0120E030E0A901C701B6010E94B43643
:104C300087FD04C1C43608F441C08CE98C0F20E024
:104C4000833098F590E0880F991F880F991F2230C4
:104C500059F0FC012330F1F0213019F0E45FF84FF6
:104C60001FC0E85EF84F1CC0EC01CC5DD84F20E0BF
:104C700030E040E752E4C701B6010E94F23820E07C
:104C800030E040E752E40E94F238688379838A83F7
:104C90009B83D1C0E05DF84FF7FAF094F7F8F094F9
:104CA000C082D182E282F382C6C02F5F8A3008F4CC
:104CB000C7C0243009F4C4C08A50C2CFC701B601AE
:104CC0000E94C0390E9428378C2F90E081329105D4
:104CD00008F0B6C0FC01ED57FF4F0C94213A633049
:104CE00008F4B0C060933C07A6C060933F07A3C020
:104CF00060933D0702C060933E0785D49CC08091BD
:104D00005107662311F0846094C08B7F92C080911C
:104D10005107662311F080648CC08F7B8AC080911C
:104D20005107662311F0806801C08F778093510787
:104D300080E00E94291C7FC0609340077CC0C09225
:104D40004107D0924207E0924307F092440773C0B4
:104D5000C0924507D0924607E0924707F092480775
:104D60006AC080915107662311F0816001C08E7F77
:104D7000809351070E9488335EC08091510766235B
:104D800021F084FF61C0806254C08F7D52C0809149
:104D90005107662311F0886001C0877F8093510717
:104DA0000E94340D48C080915107662311F0806144
:104DB00040C08F7C3EC0609352073DC0C0925307F5
:104DC000D0925407E0925507F092560734C0C09233
:104DD0005707D0925807E0925907F0925A072BC014
:104DE00070E070935C0760935B0725C0C0925D071D
:104DF000D0925E07E0925F07F09260071CC0C092FD
:104E00004907D0924A07E0924B07F0924C0708C03E
:104E1000C0924D07D0924E07E0924F07F092500794
:104E200051D009C080915107662311F0826001C002
:104E30008D7F8093510720DE80E007C084E005C0AD
:104E400083E003C086E001C08AE0DF91CF91FF904C
:104E5000EF90DF90CF900895C7DE811105C087E005
:104E6000BBD88FEF16DE0DC90895882321F081305D
:104E700021F080E1089584E0089588E00895882372
:104E800021F0813021F084E0089581E0089582E0EE
:104E90000895882321F0813021F080E8089580E290
:104EA000089580E4089595B5892F807295FF05C017
:104EB000C59902C081E0089582E0089585B58F7D8F
:104EC00085BD0895BF9A8BE485BDBD9A20914D079D
:104ED00030914E0740914F0750915007609149071C
:104EE00070914A0780914B0790914C070E94DA35E8
:104EF0009B01AC0160E070E08EE793E40E94BB365A
:104F0000609394047093950480939604909397040F
:104F1000D5CF83BD811103C085B58F7D02C085B516
:104F2000806285BD08954F925F926F927F928F92BB
:104F30009F92AF92BF92CF92DF92EF92FF926B015E
:104F40007C0180904D0790904E07A0904F07B09045
:104F500050074090490750904A0760904B07709067
:104F60004C07A3019201C501B4010E94B73887FF25
:104F700019C06091FD0570E080E090E00E94563716
:104F80002AE037ED43E25CE30E94F238A701960184
:104F90000E94F2386B017C01A30192010E94B73894
:104FA00087FD0AC0409201065092020660920306F5
:104FB000709204068FEF47C0A5019401C701B601A6
:104FC0000E94B4361816E4F020E030E0A901C701D1
:104FD000B6010E94B436811109C0109201061092E8
:104FE000020610920306109204062DC0809201065C
:104FF00090920206A0920306B092040681E023C0BC
:10500000C0920106D0920206E0920306F0920406D6
:10501000A5019401C701B6010E94DA3520919404DC
:105020003091950440919604509197040E94F23873
:105030000E94913720E030E040E85FE30E94DB35DA
:105040000E942837862FFF90EF90DF90CF90BF907F
:10505000AF909F908F907F906F905F904F9008954A
:105060009091F505911120C081110AC0109201069E
:105070001092020610920306109204061FDF12C05F
:10508000803111F4C59801C0C59A9091510791FFE4
:1050900005C0803219F440E050E0BA01CB01BA01FA
:1050A00042DF37DF1092FF050895CF92DF92EF9233
:1050B000FF92CF939091F405923071F06A017B01D9
:1050C000C82F0E949D1FB701A6018C2FCF91FF9082
:1050D000EF90DF90CF90C4CFCF91FF90EF90DF9013
:1050E000CF9008958091510782FF04C080916500A0
:1050F000886003C080916500877F80936500809100
:10510000CE048093E00480913C07880F8450819501
:105110008093DF0487B7806187BF089587B78F7E4C
:1051200087BF8EB5887F81608EBD1092CC04809140
:105130003F079091F4058F3F39F42091200621110B
:1051400003C0903841F402C0943029F090E00E94EE
:10515000B61481E001C080E09091510792FF02C037
:1051600091E08927882321F080916500886003C041
:1051700080916500877F8093650008951F920F924C
:105180000FB60F9211240BB60F922F933F934F93AC
:105190005F936F937F938F939F93AF93BF93EF939F
:1051A000FF938091CC04811105C288B39091E104F2
:1051B0009770887F892B88BB83B1837E9091E004B0
:1051C000892B83B98091DF0482BF82E083BF81E0B5
:1051D0008093CC0478948091F3049091F404892B0B
:1051E00009F0B6C08091D1049091D004981709F4C9
:1051F000A1C0E091D1042E2F30E087E0E89FF001BC
:105200001124EB50FB4FF093F404E093F3048281FC
:1052100093819BBD8ABD808191819093EF0480939F
:10522000EE04E4818091F0048E1761F1E093F004C4
:1052300082E1E89FF0011124E15EFA4FF093F2045D
:10524000E093F10484859585A685B785B695A795E5
:10525000979587958093DA049093DB04A093DC0400
:10526000B093DD048093D6049093D704A093D80420
:10527000B093D9048093D2049093D304A093D40420
:10528000B093D504A091F104B091F20450969C9192
:1052900050978091CD0489278093E10487E0829F15
:1052A000F001839FF00D1124EB50FB4F25814D91B0
:1052B0005D916D917C911397022E04C07695679550
:1052C000579547950A94D2F74093E2045093E3042C
:1052D0006093E4047093E50414964D915D916D9193
:1052E0007C911797022E04C0769567955795479540
:1052F0000A94D2F74093E6045093E7046093E804DD
:105300007093E90418968D919D910D90BC91A02DFC
:1053100004C0B695A795979587952A95D2F780935F
:10532000EA049093EB04A093EC04B093ED0486811F
:10533000F0DD0EC0F3DEE091F104F091F20481891A
:10534000882311F080E0E5DD84E00E94F83332C16B
:1053500080910706813011F40E944E1C1092E004E7
:105360004091D2045091D3046091D4047091D5043B
:105370008091E2049091E304A091E404B091E504EB
:10538000840F951FA61FB71F8093D2049093D30458
:10539000A093D404B093D504E091F104F091F20409
:1053A0004485558566857785481759076A077B07C1
:1053B00068F524E02093E00444855585668577856B
:1053C000841B950BA60BB70B8093D2049093D30448
:1053D000A093D404B093D5042089809114069091B1
:1053E0001506A0911606B091170620FF04C001977C
:1053F000A109B10903C00196A11DB11D8093140636
:1054000090931506A0931606B09317064091D60404
:105410005091D7046091D8047091D9048091E6042A
:105420009091E704A091E804B091E904840F951FDE
:10543000A61FB71F8093D6049093D704A093D804D7
:10544000B093D904448555856685778548175907F3
:105450006A077B0778F52091E00428602093E00438
:105460004485558566857785841B950BA60BB70B00
:105470008093D6049093D704A093D804B093D90412
:1054800020898091180690911906A0911A06B09172
:105490001B0621FF04C00197A109B10903C00196B1
:1054A000A11DB11D8093180690931906A0931A06AA
:1054B000B0931B064091DA045091DB046091DC0448
:1054C0007091DD048091EA049091EB04A091EC04CA
:1054D000B091ED04840F951FA61FB71F8093DA04C7
:1054E0009093DB04A093DC04B093DD0444855585E0
:1054F00066857785481759076A077B0778F52091F5
:10550000E00420612093E004448555856685778515
:10551000841B950BA60BB70B8093DA049093DB04E6
:10552000A093DC04B093DD04208980911C06909147
:105530001D06A0911E06B0911F0622FF04C0019710
:10554000A109B10903C00196A11DB11D80931C06DC
:1055500090931D06A0931E06B0931F068091F4053C
:10556000843039F49091E0048091FA058923809386
:10557000E0048091EE049091EF0401979093EF0482
:105580008093EE04892B69F41092F4041092F304D2
:105590008091D1048F5F8093D104863011F41092F2
:1055A000D1049091E0048091CE0489278093E00497
:1055B0001092CC04FF91EF91BF91AF919F918F9189
:1055C0007F916F915F914F913F912F910F900BBE03
:1055D0000F900FBE0F901F9018951F920F920FB64D
:1055E0000F9211248F939F9383B19091CE049C715D
:1055F000837E892B83B913BE9F918F910F900FBE2D
:105600000F901F9018950F931F93CF93DF931092D5
:10561000CE041092CD04C0E0D0E01C2F0C2F80915E
:105620003D0790E00C2E02C0959587950A94E2F70D
:1056300080FF07C0812F19DC9091CE04892B8093C5
:10564000CE0480913E0790E002C0959587950A951B
:10565000E2F780FF07C0812F12DC9091CD04892BE7
:105660008093CD042196C330D105B9F6DF91CF9157
:105670001F910F910895CF93DF9350DD80E3E8E908
:10568000F4E0DF011D928A95E9F7C2EDD4E083E2F0
:10569000FE0111928A95E9F71092CB041092CA0488
:1056A0001092D1041092D00481E08093CF04109224
:1056B000CC04A9DF8091CD048F8783B1837E909144
:1056C000CE04892B83B988B3887F9091CD04892B30
:1056D00088BBDF91CF91089582B18C6182B9E4E6F5
:1056E000F0E080818860808387B3876087BB8EB558
:1056F0008F7E8EBD8EB588608EBD8FB58C7F8FBD41
:105700008FB58F708FBD87B78C7F87BF13BE87B76C
:10571000816087BF0895CF93DF93C091CA04D09171
:10572000CB042097C9F080919904816080939904FB
:105730006091AF047091B0048091B1049091B20473
:105740009B01AC010E94F2386A8B7B8B8C8B9D8B0A
:105750001092CB041092CA04DF91CF9108952F923A
:105760003F924F925F926F927F928F929F92AF92F1
:10577000BF92CF92DF92EF92FF920F931F93CF933E
:10578000DF93CDB7DEB7EA970FB6F894DEBF0FBE52
:10579000CDBF8091F80580FD1AC79091D10480910A
:1057A000CF04981709F413C78091CA049091CB04D1
:1057B000892B09F00CC38091F80582FF03C00E9479
:1057C000171702C00E9420179093CB048093CA043D
:1057D0002090CA043090CB042114310409F4F7C698
:1057E00010919904812F817010FF03C010929904C9
:1057F000E9C0909198049F5F953009F0892F8093BC
:105800009804E82EF12C22E12E9DF0012F9DF00D41
:105810001124E15EFA4FF093C904E093C804D1016A
:1058200050969C915097908BE2E18E9FC00111247D
:1058300020E030E04D915D916D917D91F901E80F8F
:10584000F91FE15EFA4F03E0440F551F661F771FF3
:105850000A95D1F740835183628373832C5F3F4F56
:105860002C30310539F722E12E9DF0012F9DF00DEE
:1058700011249F01215E3A4FF10184859585A6850B
:10588000B78543E0880F991FAA1FBB1F4A95D1F720
:10589000F90184879587A687B787D1011C966D91FA
:1058A0007D918D919C911F970E94543760939E0427
:1058B00070939F048093A0049093A104F101268D1E
:1058C000378D40A151A10E94BB369B01AC01609372
:1058D000A2047093A3048093A4049093A50460E0B1
:1058E00070E080EA9FE30E94BB366093A604709349
:1058F000A7048093A8049093A90410929A0410928C
:105900009B0410929C0410929D048091F80581FDE7
:1059100002C013FF1FC06091B7047091B80480915A
:10592000B9049091BA046093AF047093B00480936B
:10593000B1049093B2049B01AC010E94F238D101F2
:1059400052966D937D938D939C935597177F1093EB
:1059500099040FC0F10162897389848995890E9435
:105960007F396093AF047093B0048093B104909337
:10597000B204F2E1FE9D8001FF9D100D1124015E35
:105980001A4FD80151961C928091510781FF1AC07D
:10599000F101818985FF16C022A533A544A555A52F
:1059A00060E070E080E89FE30E94BB366093C30430
:1059B0007093C4048093C5049093C604E1E0D801B9
:1059C0005196EC931092AB041092AC041092AD047B
:1059D0001092AE04D1015A968D909D90AD90BC90DE
:1059E0005D97A501940160E070E080E09FE30E9474
:1059F000BB362B013C018091F805F101C68CD78C98
:105A0000E0A0F1A081FF4FC0F2E0F093AA04D10121
:105A100052962D913D914D915C91559729833A83F2
:105A20004B835C83C301B2010E94F2389B01AC013D
:105A3000C701B6010E94DA352B013C0120E030E0BD
:105A4000A9010E94B43687FF1DC0A5019401C501BC
:105A5000B4010E94DB35A70196010E94F2389B0138
:105A6000AC0169817A818B819C810E94DA350E9428
:105A70007F396093B7047093B8048093B90490930E
:105A8000BA04A0C14092AB045092AC046092AD0441
:105A90007092AE041092B7041092B8041092B90438
:105AA0001092BA048FC11092AA04C092BB04D09283
:105AB000BC04E092BD04F092BE0482FF0DC01092BF
:105AC000B7041092B8041092B9041092BA04198263
:105AD0001A821B821C8210C00E94301769837A834D
